:100000000C945D000C947F030C9458030C948500B1
:100010000C9485000C9485000C9485000C9485004C
:100020000C9485000C9485000C9485000C9485003C
:100030000C9485000C9485000C9485000C9485002C
:100040000C940E030C9485000C94DC020C94B60204
:100050000C9485000C9485000C9485000C9485000C
:100060000C9485000C9485000000000024002700FB
:100070002A0000000000250028002B0004040404CE
:100080000404040402020202020203030303030342
:10009000010204081020408001020408102001021F
:1000A00004081020000000080002010000030407FB
:1000B00000000000000000005F0611241FBECFEF0B
:1000C000D8E0DEBFCDBF11E0A0E0B1E0E6E7FDE0A3
:1000D00002C005900D92AC37B107D9F722E0ACE72A
:1000E000B1E001C01D92A934B207E1F710E0CDE5FF
:1000F000D0E004C02197FE010E94AE06CC35D107A6
:10010000C9F70E94A6030C94B9060C9400008091D4
:10011000840090918500AC0160E070E040937F0125
:100120005093800160938101709382011092850049
:10013000109284004E3F21E052076105710528F4BA
:1001400090937E0180937D01089547375740610564
:10015000710518F010927C01089520917C01E22F26
:10016000F0E0EE0FFF1FE457FE4F40917D015091EC
:100170007E01840F951F918380832F5F20937C01E4
:100180000895CF92DF92EF92FF920F931F93CF9338
:10019000DF936C017A018B01C0E0D0E0CE15DF0562
:1001A00089F0D8016D918D01D601ED91FC910190FE
:1001B000F081E02DC6010995892B11F47E0102C062
:1001C0002196ECCFC701DF91CF911F910F91FF9046
:1001D000EF90DF90CF900895FC01918D828D98175C
:1001E00061F0828DDF01A80FB11D5D968C91928D1B
:1001F0009F5F9F73928F90E008958FEF9FEF089518
:10020000FC01918D828D981731F0828DE80FF11DE0
:10021000858D90E008958FEF9FEF0895FC01918DFB
:10022000228D892F90E0805C9F4F821B91098F73F4
:10023000992708958CEA91E00E940E0121E0892B14
:1002400009F420E0822F0895FC01848DDF01A80FBE
:10025000B11DA35ABF4F2C91848D90E001968F73EE
:100260009927848FA689B7892C93A089B1898C910D
:1002700080648C93938D848D981306C00288F389D3
:10028000E02D80818F7D80830895EF92FF920F9300
:100290001F93CF93DF93EC0181E0888F9B8D8C8D32
:1002A000981305C0E889F989808185FD24C0F62E60
:1002B0000B8D10E00F5F1F4F0F731127E02E8C8DF9
:1002C000E8120CC00FB607FCFACFE889F9898081E3
:1002D00085FFF5CFCE010E942401F1CF8B8DFE0169
:1002E000E80FF11DE35AFF4FF0820B8FEA89FB897B
:1002F0008081806207C0EE89FF896083E889F9897F
:1003000080818064808381E090E0DF91CF911F91B4
:100310000F91FF90EF900895CF93DF93EC01888DBC
:100320008823C9F0EA89FB89808185FD05C0A889F9
:10033000B9898C9186FD0FC00FB607FCF5CF80817F
:1003400085FFF2CFA889B9898C9185FFEDCFCE01C9
:100350000E942401E7CFDF91CF91089580E090E0E3
:10036000892B29F00E941A0181110C940000089534
:1003700090E0FC01EC55FF4F3491FC01E057FF4F3A
:100380002491FC01E458FF4FE491EE2309F43BC0B3
:10039000332339F1333091F038F43130A9F0323071
:1003A00001F584B58F7D12C0373091F03830A1F05F
:1003B0003430B9F4809180008F7D03C0809180003B
:1003C0008F77809380000DC084B58F7784BD09C07E
:1003D0008091B0008F7703C08091B0008F7D8093B3
:1003E000B000F0E0EE0FFF1FEE58FF4FA591B49163
:1003F0008FB7F894EC91611103C020952E2301C0B2
:100400002E2B2C938FBF0895CF93DF9390E0FC01A8
:10041000E057FF4F2491FC01E458FF4F849188235B
:1004200061F190E0880F991FFC01E859FF4FC591D9
:10043000D491FC01EE58FF4FA591B491611109C010
:100440009FB7F8948881209582238883EC912E238E
:100450000BC0623061F49FB7F8943881822F809589
:1004600083238883EC912E2B2C939FBF06C08FB7DC
:10047000F894E8812E2B28838FBFDF91CF910895C8
:100480003FB7F8948091880190918901A0918A01E9
:10049000B0918B0126B5A89B05C02F3F19F001969E
:1004A000A11DB11D3FBFBA2FA92F982F8827820FFA
:1004B000911DA11DB11DBC01CD0143E0660F771F49
:1004C000881F991F4A95D1F708958F929F92AF92F6
:1004D000BF92CF92DF92EF92FF926B017C010E945C
:1004E00040024B015C01C114D104E104F104F1F0BC
:1004F0000E944002DC01CB0188199909AA09BB09B5
:10050000883E9340A105B10570F321E0C21AD108DD
:10051000E108F10888EE880E83E0981EA11CB11C4A
:10052000C114D104E104F10419F7DDCFFF90EF907D
:10053000DF90CF90BF90AF909F908F9008950895D7
:10054000009769F0FC0101900020E9F73197AF01B5
:10055000481B590BBC018CEA91E00C94C10080E06F
:1005600090E008950C94A0020E94B4061F920F928E
:100570000FB60F9211242F933F934F935F936F9376
:100580007F938F939F93AF93BF93EF93FF938CEAE7
:1005900091E00E942401FF91EF91BF91AF919F9153
:1005A0008F917F916F915F914F913F912F910F901C
:1005B0000FBE0F901F9018951F920F920FB60F92BB
:1005C00011242F938F939F93EF93FF93E091BC019E
:1005D000F091BD018081E091C201F091C30182FDE3
:1005E00012C090818091C5018F5F8F732091C601E9
:1005F000821751F0E091C501F0E0E455FE4F958F70
:100600008093C50101C08081FF91EF919F918F91EF
:100610002F910F900FBE0F901F9018951F920F9261
:100620000FB60F9211242F933F938F939F93AF9305
:10063000BF938091840190918501A0918601B09132
:1006400087013091830126E0230F2D3720F4029695
:10065000A11DB11D05C029E8230F0396A11DB11DE1
:10066000209383018093840190938501A093860158
:10067000B09387018091880190918901A0918A01AE
:10068000B0918B010196A11DB11D809388019093BB
:100690008901A0938A01B0938B01BF91AF919F9183
:1006A0008F913F912F910F900FBE0F901F90189533
:1006B0001F920F920FB60F9211242F933F934F93D7
:1006C0005F936F937F938F939F93AF93BF93EF93BA
:1006D000FF93E0910201F09103010995FF91EF91E1
:1006E000BF91AF919F918F917F916F915F914F914A
:1006F0003F912F910F900FBE0F901F9018951F9252
:100700000F920FB60F9211242F933F934F935F9345
:100710006F937F938F939F93AF93BF93EF93FF93C9
:10072000E0910001F09101010995FF91EF91BF91D6
:10073000AF919F918F917F916F915F914F913F9179
:100740002F910F900FBE0F901F901895CF93DF93AE
:10075000CDB7DEB7A1970FB6F894DEBF0FBECDBF01
:10076000789484B5826084BD84B5816084BD85B58C
:10077000826085BD85B5816085BD80916E00816098
:1007800080936E001092810080918100826080933E
:100790008100809181008160809381008091800040
:1007A0008160809380008091B10084608093B1006B
:1007B0008091B00081608093B00080917A00846065
:1007C00080937A0080917A00826080937A00809191
:1007D0007A008E7F80937A0080917A00806880937F
:1007E0007A001092C100E091BC01F091BD0182E05D
:1007F0008083E091B801F091B9011082E091BA01D3
:10080000F091BB0188E080831092C401E091C001A7
:10081000F091C10186E08083E091BE01F091BF01BB
:10082000808180618083E091BE01F091BF01808171
:1008300088608083E091BE01F091BF018081806873
:100840008083E091BE01F091BF0180818F7D808324
:1008500084E191E00E94A0028AE191E00E94A0025E
:1008600060E082E00E94040261E084E00E940402F1
:1008700061E08DE00E94040287E890E0909301011E
:1008800080930001809169008C7F81608093690072
:10089000E89A10928000109281008091810082601D
:1008A0008093810003E010E061E084E00E94B801E1
:1008B00061E08DE00E94B80168EC70E080E090E0BB
:1008C0000E94650260E084E00E94B80160E08DE073
:1008D0000E94B80164E670E080E090E00E9465024A
:1008E0000150110909F78AE0882E912CA12CB12C16
:1008F0008DE191E00E94B202C090A601D090A701C4
:100900000D2C000CEE08FF08F7FE26C0E091AC01AC
:10091000F091AD010190F081E02D6DE28CEA91E063
:10092000099522273327A9012C193D094E095F0992
:1009300019A28E010F5D1F4FCA01B901A5019401D3
:100940000E948C06605DF80162938F0121153105CC
:100950004105510589F715C0A701960119A28E011D
:100960000F5D1F4FCA01B901A50194010E948C06B9
:10097000605DF80162938F01211531054105510534
:1009800089F7C8010E94A0028CE191E00E94A002B8
:100990008AE191E00E94A00262E370E080E090E0D2
:1009A0000E9465028091A6019091A7018A3091056D
:1009B0005CF460E084E00E94B80160E08DE00E9499
:1009C000B80188E291E076C19C01295C35402E3166
:1009D000310558F460E084E00E94B80160E08DE0E9
:1009E0000E94B80182E391E065C19C012B5031095E
:1009F0002833344058F461E084E00E94B80161E09B
:100A00008DE00E94B80185E391E054C19C0123541C
:100A1000344024363105F8F461E084E00E94B801E6
:100A200061E08DE00E94B80164E873E080E090E04E
:100A30000E94650260E084E00E94B80160E08DE001
:100A40000E94B8016CE271E080E090E00E946502D3
:100A50008BE391E02FC19C01275A344024363105A5
:100A6000F8F461E084E00E94B80161E08DE00E944A
:100A7000B80164E873E080E090E00E94650260E005
:100A800084E00E94B80160E08DE00E94B80168EC4B
:100A900070E080E090E00E94650281E491E00AC18C
:100AA0009C012B50354024363105F8F461E084E098
:100AB0000E94B80161E08DE00E94B8016CEB72E029
:100AC00080E090E00E94650260E084E00E94B8014E
:100AD00060E08DE00E94B80168EC70E080E090E09A
:100AE0000E94650287E491E0E5C09C012F563540E5
:100AF0002A353105F8F461E084E00E94B80161E034
:100B00008DE00E94B80168E572E080E090E00E940C
:100B1000650260E084E00E94B80160E08DE00E9420
:100B2000B80164E670E080E090E00E9465028DE428
:100B300091E0C0C09C01275E354020353105F8F4B6
:100B400061E084E00E94B80161E08DE00E94B8019C
:100B500064EF71E080E090E00E94650260E084E074
:100B60000E94B80160E08DE00E94B80164E670E088
:100B700080E090E00E94650283E591E09BC09C01CB
:100B80002753364024363105F8F461E084E00E94B2
:100B9000B80161E08DE00E94B80160E971E080E099
:100BA00090E00E94650260E084E00E94B80160E08D
:100BB0008DE00E94B80164E670E080E090E00E9461
:100BC000650289E591E076C09C012B5936402436B8
:100BD0003105F8F461E084E00E94B80161E08DE045
:100BE0000E94B8016CE271E080E090E00E94650232
:100BF00060E084E00E94B80160E08DE00E94B801EE
:100C00006BE470E080E090E00E9465028FE591E087
:100C100051C09C012F5F364024363105F8F461E065
:100C200084E00E94B80161E08DE00E94B80168ECA8
:100C300070E080E090E00E94650260E084E00E9445
:100C4000B80160E08DE00E94B80162E370E080E0EE
:100C500090E00E94650285E691E02CC083369740C3
:100C6000FCF061E084E00E94B80161E08DE00E9448
:100C7000B80166E970E080E090E00E94650260E003
:100C800084E00E94B80160E08DE00E94B80169E153
:100C900070E080E090E00E9465028BE691E00AC07F
:100CA00060E084E00E94B80160E08DE00E94B8013D
:100CB00082E791E00E94B2020E94AE0119CEECEAF6
:100CC000F1E01382128288EE93E0A0E0B0E084832A
:100CD0009583A683B78388E091E09183808385EC38
:100CE00090E09587848784EC90E09787868780ECF6
:100CF00090E0918B808B81EC90E0938B828B82ECE7
:100D000090E0958B848B86EC90E0978B868B118E90
:100D1000128E138E148E0895A1E21A2EAA1BBB1BED
:100D2000FD010DC0AA1FBB1FEE1FFF1FA217B307B7
:100D3000E407F50720F0A21BB30BE40BF50B661FCD
:100D4000771F881F991F1A9469F760957095809591
:100D500090959B01AC01BD01CF010895EE0FFF1FDF
:100D60000590F491E02D099481E090E0F8940C94C2
:060D7000B906F894FFCF64
:100D76009F029F02000000004501C1000E01EC0029
:100D860000018C017265616479000D0A00434820F8
:100D960076616C75653A20004E6F207369676E61E7
:100DA6006C00302500506F73203100506F73203275
:100DB60000506F73203300506F73203400506F73F0
:100DC600203500506F73203600506F732037005067
:100DD6006F73203800506F73203900506F732031C5
:0C0DE60030004E6F206D617463680000E7
:00000001FF
